:10000000010A64005E0A4604030C32008A0C3100C7
:10001000550C3000F0020A0AF1020A0AF2020A0A3A
:10002000110A7500380A010C3F001F02F501730028
:1000300074002F0A010C3C007D001C02F301030632
:10004000B4021D02F4014605A60C3000F002260A97
:1000500000004604A60C3000F0022C0A0000010C3F
:100060009400F40C430693000307370A380A1A0A6F
:10007000030C950003073D0A3E0A130A00083100ED
:1000800072006606440A450A410A570A6606490A8A
:100090004A0A4C0A7200500A010C3F001F02F2018A
:1000A000C10C3000530AF002520A560A570A1102D4
:1000B000920003075C0A5D0A460A00081E0C250030
:1000C000800C020066000A0C06004604C80CFE09FB
:1000D000060C3800130C3700AD0C3600F6026E0A21
:1000E000F7026E0AF8026E0A750AFD09650A000A2F
:0401FA00030A3F0AAB
:08020000FF0FFF0FFF0FFF0FBE
:021FFE00EB0FE7
:00000001FF
